:100000000EC01DC0C0C11BC01AC019C018C017C087
:1000100016C015C014C013C012C033C04BC0112489
:100020001FBECFE5D1E0DEBFCDBF20E0A0E6B0E04F
:1000300001C01D92AE39B207E1F704D085C2E0CF0E
:100040009BD1D7C0C19AB19B02C082E201C080E2BD
:10005000C5D080E290E0F7D04CD180E076D1EAD0F4
:100060008823E9F3D6D08630D0F7F8CF87B3856000
:1000700087BBC29AC09AB89888EA8DB980EF8EB9CA
:1000800008951F920F920FB60F9211248F93109222
:100090008600B89886B386B3B09B02C088EA01C0D8
:1000A00088EF8DB980EF8EB98F910F900FBE0F90B2
:1000B0001F9018951F920F920FB60F9211242F9335
:1000C0003F934F935F936F937F938F939F93AF93E0
:1000D000BF93EF93FF93759B02C0C8DF6EC0809102
:1000E0008600823009F456C028F48823C1F081309C
:1000F00049F163C0843009F453C008F1853009F038
:100100005CC09FB1809175008F5F8F708093750088
:10011000E0917500F0E0EA58FF4F908347C08FB13F
:10012000882349F08FB190E08E7F2091870030E0E6
:1001300082179307D1F4789B39C081E038C08FB122
:10014000811113C09091620080916300891310C0E7
:10015000E0916000F0916100309719F0099580916D
:10016000620090916300981303C088EA8DB91CC0A7
:1001700082E080938600809162008F5F8F70809311
:100180006200E0916200F0E0EC59FF4F80818FB98E
:10019000B89A0AC083E080938600B8981FB80BC055
:1001A00085E080938600B89880E706C084E080935D
:1001B00086001FB8B89A8EE78EB9FF91EF91BF9174
:1001C000AF919F918F917F916F915F914F913F91EF
:1001D0002F910F900FBE0F901F90189510926200F4
:1001E0001092630010927400109275008093870043
:1001F0003DCF909163009F5F9F70209162009217A6
:10020000E1F3E92FF0E0EC59FF4F80839093630016
:10021000089580917400909175009817E1F3E09132
:100220007400EF5FEF70E0937400F0E0EA58FF4F66
:1002300080810895909174002091750081E02913C8
:1002400001C080E008959C019FB7F894309361004D
:10025000209360009FBF089580918A0083FF39C07A
:100260008091880090918900892B51F580918A00B6
:10027000837099F080918A008C7F80938A008091AE
:100280008A0082FF05C080918B0090918C001DC078
:1002900080918F009091900018C080918A008360B7
:1002A00080938A0080918A0082FF05C080918D0032
:1002B00090918E000AC0809191009091920005C0AB
:1002C0008091880090918900019790938900809394
:1002D000880009D1882329F080918A0080FF07C017
:1002E00004C080918A0081FF02C0C3980895C39A18
:1002F0000895C39ABB9A8CE291E0A6D0FAD066E04A
:1003000070E0FDD001969093920080939100F1D01F
:1003100062E572E0F4D001969093900080938F0094
:10032000E8D06EE070E0EBD0019690938E00809361
:100330008D00DFD06AE472E0E2D0019690938C00E9
:1003400080938B00DBD080E008959FB7F8941092E3
:10035000890010928800843041F020F0853041F40B
:100360002CE004C080938A0003C028E020938A0018
:100370009FBF8093930008958091930008958BB759
:1003800080628BBF08951F920F920FB60F921124B7
:100390002F933F934F935F936F937F938F939F938D
:1003A000AF93BF93EF93FF9380919900882341F01F
:1003B000E0919A00F0919B003097A9F1099533C024
:1003C0008FB52091950030919600232B39F410922F
:1003D000980010929700809394001CC02091970081
:1003E0003091980090919400482F491B240F311DA3
:1003F000309398002093970080939400809195000B
:1004000090919600C29731F48BB78F7D8BBF81E0BE
:100410008093990080919500909196000196909319
:10042000960080939500FF91EF91BF91AF919F91BE
:100430008F917F916F915F914F913F912F910F908D
:100440000FBE0F901F901895CF93DF9310929900D5
:10045000C498BC98AC9A2AE020BF90939B008093EC
:100460009A008DDF7894C2E3D0E0809199008823D0
:10047000E1F38091970090919800BE0151D0709364
:1004800098006093970080919700909198008C3726
:10049000910550F080919700909198008A389105CD
:1004A00018F48CE390E010C0809197009091980030
:1004B0008339910580F08091970090919800873A58
:1004C000910548F482E390E090939D0080939C0016
:1004D000DF91CF9154CF1092960010929500109218
:1004E00099004DDFC2CF86B38295817091E0892754
:1004F000089580919C0090919D00089540CF002424
:10050000552704C0080E591F880F991F009729F01E
:1005100076956795B8F37105B9F7802D952F0895F5
:10052000AA1BBB1B51E107C0AA1FBB1FA617B70719
:1005300010F0A61BB70B881F991F5A95A9F7809535
:0C0540009095BC01CD010895F894FFCF08
:00000001FF
